:020000040000FA
:100000000804002039010000410100004301000004
:100010004501000047010000490100000000000008
:100020000000000000000000000000004B01000084
:100030004D010000000000004F01000051010000D0
:1000400053010000000000005301000053010000B4
:100050005301000053010000530100005301000050
:100060005301000053010000530100005301000040
:100070005301000053010000000000005301000084
:100080005301000053010000530100005301000020
:100090005301000053010000530100005301000010
:1000A0005301000053010000530100005301000000
:1000B00053010000530100005301000053010000F0
:1000C00053010000530100005301000053010000E0
:1000D00053010000530100005301000053010000D0
:1000E00053010000530100005301000053010000C0
:1000F00053010000530100005301000053010000B0
:10010000530100005301000053010000530100009F
:10011000530100005301000053010000530100008F
:1001200053010000DFF80CD000F018F80048004739
:100130009501000008040020064880470648004753
:10014000FEE7FEE7FEE7FEE7FEE7FEE7FEE7FEE787
:10015000FEE7FEE78101000025010000064C074D87
:1001600006E0E06840F0010394E807009847103487
:10017000AC42F6D3FFF7DAFFBC010000DC0100005F
:1001800040F2000047F64001C2F20000C0F27D11CB
:10019000016070474FF08040AA210170FEE702E045
:1001A00008C8121F08C1002AFAD170477047002002
:1001B00001E001C1121F002AFBD17047E0010000DD
:1001C00000000020080000009E010000E80100007F
:1001D0000800002000040000AE0100000000000044
:0801E00040787D0100000000E1
:0400000500000125D1
:00000001FF
