:020000040000FA
:1000000020040020390100004101000043010000EC
:100010004501000047010000490100000000000008
:100020000000000000000000000000004B01000084
:100030004D010000000000004F01000079020000A7
:1000400053010000000000005301000053010000B4
:100050005301000053010000530100005301000050
:100060005301000053010000530100005301000040
:100070005301000053010000000000005301000084
:100080005301000053010000530100005301000020
:100090005301000053010000530100005301000010
:1000A0005301000053010000530100005301000000
:1000B00053010000530100005301000053010000F0
:1000C00053010000530100005301000053010000E0
:1000D00053010000530100005301000053010000D0
:1000E00053010000530100005301000053010000C0
:1000F00053010000530100005301000053010000B0
:10010000530100005301000053010000530100009F
:10011000530100005301000053010000530100008F
:1001200053010000DFF80CD000F020F80048004731
:10013000ED020000200400200648804706480047E2
:10014000FEE7FEE7FEE7FEE7FEE7FEE7FEE7FEE787
:10015000FEE7FEE79D02000025010000421C10F8AA
:10016000011B0029FBD1801A70470000064C074D87
:1001700006E0E06840F0010394E807009847103477
:10018000AC42F6D3FFF7D2FF50030000700300002B
:1001900080B500F079F840F20000C2F2000000687B
:1001A00044F6D351C1F26201A0FB01014FF0FF30D0
:1001B00000EB91110020B0EB116F18BF80BD4EF223
:1001C0001002CEF2000251604EF62351CEF2000131
:1001D000E0230B7090600720106080BD40F2180192
:1001E000C2F20001086000BF08680028FCD1704717
:1001F00080B50B20002100F069F80420012100F0F7
:1002000065F8082000F05CF8012000F051F880BD8E
:100210002DE9F04381B08146104690460D4600F02E
:1002200047F8FDB1002702E00137AF421AD019F8B4
:10023000074000260BE000BF022000F039F8012043
:10024000640000F03DF8072E06F10106ECD2012013
:1002500000F02EF860B2B0F1FF3FEDDC022000F0BC
:100260002FF8ECE7012000F023F8404600F028F8D2
:1002700001B0BDE8F083000040F21800C2F20000B7
:10028000016801390160704740F200004FF28001BF
:10029000C2F20000C0F2FA210160704740F2000093
:1002A0004FF28001C2F20000C0F2FA2101607047F3
:1002B0004FF080410A6822EA0000086070470000A1
:1002C0004FF080410A681043086070470422C4F26E
:1002D000000231B1012918BF70471168084310604E
:1002E0007047116821EA00001060704780200021EB
:1002F000FFF7ECFFFFF77CFFFFF74AFF40F2040433
:10030000C2F200048020FFF7DBFF4FF47A70FFF7A2
:1003100065FF8020FFF7CCFF4FF47A70FFF75EFF98
:100320002046FFF71BFFC1B220460822FFF770FFEF
:10033000E8E702E008C8121F08C1002AFAD1704796
:100340007047002001E001C1121F002AFBD1704755
:1003500070030000000000201800000032030000BD
:100360008803000018000020080400004203000079
:1003700080F0FA0258696C696E78205A594E512003
:080380003730313000000000AD
:0400000500000125D1
:00000001FF
